:03000000020026D5
:0C002600787FE4F6D8FD75811202006DB1
:08017C000211000E020F000049
:1000B20075B81012000E120192E50830E7FBE50A4E
:1000C20064527036E50BB43014E50C75F00A84FF07
:1000D200C3740E9FF512E49400F511801DE50BB474
:1000E2003118E50CC394324003750C32E50C75F0FF
:0F00F2000A84240EF512E433F511E4F50880BA00
:03000B00020141AE
:04014100C0E0C0D08A
:10014500758CFF758A9CC3E51094C8E50F94005023
:1001550013C3E5109512E50F95115004D290800A4E
:10016500C2908006750F007510000510E51070022D
:02017500050F74
:05017700D0D0D0E03201
:10019200D2AF438901758CFF758A9CD2A9D28C2279
:0D018400010800050A00000000000109004C
:10000E00D2AF438920758DFD758BFD439840D29CF0
:05001E00D2ACD28E22DD
:0A01A200C2998F993099FDC299228D
:03002300020101D6
:0D010100C0E0C0D075D000C000C006C0072F
:10010E00AF99E5087020AE090509740A2EF8A60706
:10011E00E50A64526003750900E509C394054006BB
:08012E00750900430880C29826
:0B013600D007D006D000D0D0D0E032BF
:100032000200B2E493A3F8E493A34003F68001F232
:1000420008DFF48029E493A3F85407240CC8C333CF
:10005200C4540F4420C8834004F456800146F6DF9E
:10006200E4800B010204081020408090017CE47EB1
:10007200019360BCA3FF543F30E509541FFEE49393
:10008200A360010ECF54C025E060A840B8E493A35A
:10009200FAE493A3F8E493A3C8C582C8CAC583CA85
:1000A200F0A3C8C582C8CAC583CADFE9DEE780BE3D
:01019100006D
:00000001FF
