:03000000020C5798
:0C0C5700787FE4F6D8FD758134020C9E15
:0A108600043100000000022F0001F9
:100CE300121050120EAC120B28121022AF34AE3376
:100CF300AD32AC31120964AB07AA06750C04E4FDEE
:100D0300FF120BC1E5282464FBE43527FA750C04B4
:100D1300E4FD7F32120BC1120DE7D3E528942CE5D5
:100D23002764809481500DC3E52894D4E52764801B
:100D3300947E50B8E5282464FDE43527FC12092B82
:100D43007B427A607965783B1206F6AB34AA33A905
:100D530032A831120605120964AD07AC06EC12097C
:0B0D63002B8F348E338D328C31808159
:03000B00020A875F
:100A8700C0E0C0F0C083C082C0D075D000C000C035
:0D0A970001C002C003C004C005C006C007B6
:100AA4000530E5307002052F758C00758A01AE2F74
:100AB400AF307C007D0A120A24ED4C704C7F521238
:100AC4001091E4FFFEFDFCAB34AA33A932A8311225
:100AD400089C50127F30121091AF34AE33AD32AC5B
:100AE40031120915800D7F31121091AF34AE33AD40
:100AF40032AC311209648E178F18AF181210917F1F
:090B04000D1210917F0A121091EC
:100B0D00D007D006D005D004D003D002D001D0003C
:0B0B1D00D0D0D082D083D0F0D0E032E6
:06000300000000000022D5
:0F103200D2B7D2B6120003C2B7120003C2B62261
:0C107A00C2B7D2B6120003D2B7020003C6
:0E105F00A20092B7D2B6120003C2B60200037E
:0D106D00D2B6120003A2B7C2B612000322D1
:080F2A00121032120F32AF0564
:100F3200E4FEEF25E0FF92B7D2B6120003C2B6126A
:090F420000030EBE08EC02106D64
:100F4B00E4FFD2B7FEEF25E0FFD2B6120003A2B743
:0D0F5B00E4334207C2B61200030EBE08E8E0
:010F68002266
:0F104100AE07AC03120F2AAF04120F3202107A5F
:020FC200AC077A
:100FC400120F2A121032EC04FF120F32120F4BD2FE
:070FD4000012105F12107AF9
:010FDB0022F3
:100EAC00E4FB7D6B7FD01210417B077D197FD01244
:100EBC0010417B067D1A7FD01210417B187D1B7F61
:0D0ECC00D01210417B017D1C7FD00210412F
:100DE700E4F516E516243BFD7FD0120FC2740825E3
:100DF70016F8A6070516E516C3940E40E6E508F5AE
:100E070021E509F522E50AF523E50BF524E50CF5BF
:100E170025E50DF526E50EAD0FFCE412092B7B5CED
:100E27007AEF79A678431207FFE4FBFA79A87841AD
:100E37001206051209648E2D8F2EE510F527E51190
:100E4700F528E512F529E513F52AE514C454F0F55C
:050E57002BE515F52C50
:010E5C002273
:0F105000438920758DF7758BF7439840D28E2218
:0A109100C2998F993099FDC299228F
:10000E0000000000000000000000000000000000E2
:10001E00000000F800000000000000333000000077
:10002E0000100C06100C060000000000000000007E
:10003E0040C07840C0784000043F04043F040400F0
:10004E00007088FC08300000001820FF211E000000
:10005E00F008F000E018000000211C031E211E0015
:10006E0000F00888700000001E212324192721109B
:10007E0010160E000000000000000000000000003E
:10008E00000000E0180402000000000718204000E5
:10009E0000020418E00000000040201807000000D5
:1000AE00404080F0804040000202010F0102020039
:1000BE00000000F0000000000101011F010101001D
:1000CE00000000000000000080B070000000000082
:1000DE00000000000000000000010101010101010B
:1000EE0000000000000000000030300000000000A2
:1000FE000000000080601804006018060100000077
:10010E0000E010080810E000000F102020100F0073
:10011E00001010F8000000000020203F20200000FA
:10012E000070080808887000003028242221300052
:10013E0000300888884830000018202020110E005A
:10014E000000C02010F8000000070424243F240003
:10015E0000F80888880808000019212020110E00D8
:10016E0000E0108888180000000F112020110E00EA
:10017E0000380808C83808000000003F00000000E2
:10018E000070880808887000001C222121221C00A3
:10019E0000E010080810E0000000312222110F00CC
:1001AE00000000C0C0000000000000303000000061
:1001BE0000000080000000000000806000000000D1
:1001CE0000008040201008000001020408102000EA
:1001DE004040404040404000040404040404040035
:1001EE0000081020408000000020100804020100CA
:1001FE00007048080808F0000000003036010000CA
:10020E00C030C828E810E0000718272423140B007C
:10021E000000C038E0000000203C230202273820F6
:10022E0008F8888888700000203F202020110E00DA
:10023E00C0300808080838000718202020100800D1
:10024E0008F808080810E000203F202020100F00BA
:10025E0008F88888E8081000203F20202320180086
:10026E0008F88888E8081000203F200003000000EE
:10027E00C03008080838000007182020221E02008F
:10028E0008F808000008F808203F210101213F204E
:10029E00000808F8080800000020203F2020000079
:1002AE0000000808F8080800C08080807F00000069
:1002BE0008F888C028180800203F200126382000A2
:1002CE0008F8080000000000203F20202020300009
:1002DE0008F8F800F8F80800203F003F003F200023
:1002EE0008F830C00008F808203F200007183F002B
:1002FE00E01008080810E0000F10202020100F005A
:10030E0008F808080808F000203F2101010100004C
:10031E00E01008080810E0000F18242438504F0091
:10032E0008F8888888887000203F2000030C302051
:10033E0000708808080838000038202121221C008F
:10034E00180808F8080818000000203F20000000D8
:10035E0008F808000008F808001F202020201F00C1
:10036E000878880000C83808000007380E01000021
:10037E00F80800F80008F800033C0700073C0300EB
:10038E00081868808068180820302C03032C302051
:10039E000838C800C83808000000203F20000000C0
:1003AE0010080808C8380800203826212020180018
:1003BE00000000FE020202000000007F40404000EC
:1003CE00000C30C000000000000000010638C00024
:1003DE0000020202FE000000004040407F000000CC
:1003EE0000000402020204000000000000000000F1
:1003FE0000000000000000008080808080808080EF
:10040E0000020204000000000000000000000000D6
:10041E0000008080808000000019242222223F20CC
:10042E0008F8008080000000003F112020110E000F
:10043E000000008080800000000E1120202011009E
:10044E00000000808088F800000E112020103F2050
:10045E000000808080800000001F222222221300D4
:10046E00008080F0888888180020203F202000001F
:10047E000000808080808000006B949494936000D4
:10048E0008F8008080800000203F210000203F20DF
:10049E0000809898000000000020203F20200000DF
:1004AE00000000809898000000C08080807F0000CF
:1004BE0008F8000080808000203F24022D302000AC
:1004CE00000808F8000000000020203F2020000057
:1004DE008080808080808000203F20003F20003F71
:1004EE008080008080800000203F210000203F207F
:1004FE000000808080800000001F202020201F0030
:10050E00808000808000000080FFA12020110E005E
:10051E000000008080808000000E112020A0FF804F
:10052E00808080008080800020203F2120000100FC
:10053E000000808080808000003324242424190051
:10054E00008080E0808000000000001F202000005E
:10055E008080000000808000001F202020103F209F
:10056E00808080000080808000010E30080601002F
:10057E0080800080008080800F300C030C300F00D4
:10058E0000808000808080000020312E0E312000FF
:10059E00808080000080808080818E70180601002F
:1005AE0000808080808080000021302C222130004D
:1005BE0000000000807C020200000000003F40406E
:1005CE0000000000FF00000000000000FF0000001F
:1005DE000002027C800000000040403F000000004E
:1005EE0000060101020204040000000000000000E9
:100F6900D3EF9400EE940040147D6E7C00ED1D706B
:0D0F7900011CED4C70F7EF1F70E61E80E3C9
:010F86002248
:09109B00D290D291C291C29022C0
:0910A400C290C291D290D29122B7
:070F0400AD0712109B7F787E
:100F0B00E4FEEF30E704D2918002C291D290C290FE
:0E0F1B00EF25E0FF0EBE08EAD291D290C29000
:010F290022A5
:100ED90075F010A42CF582E435F0F583E582240E33
:0B0EE900F582E5833400F583E493FFFD
:100EF400120F047F40120F0BAF05120F0B0210A448
:0D0FA50024B0FF120FB27F01120FB27F10B7
:100FB200120F04E4FF120F0BAF05120F0B0210A465
:100F8700AC07ED24B0FF120FB2EC54F0C4540F4479
:0E0F970010FF120FB2EC540F4401FF020FB214
:020FDC00AC0760
:100FDE00E4FBEB120FA5E4FAAF04120EF40ABA808A
:050FEE00F70BBB08ED4C
:010FF30022DB
:10100C00E4FCEC120FA5E4FBE4FF120EF40BBB8026
:05101C00F70CBC08ED1B
:0110210022AC
:100B28007FF47E01120F697FAE120FB2E4FF120F3D
:100B3800AD7F40120FB27F81120FB27FCF120FB27A
:100B48007FA1120FB27FC8120FB27FA6120FB27F19
:100B5800A8120FB27F3F120FB27FD3120FB2E4FF79
:100B6800120FB27FD5120FB27F80120FB27FD91247
:100B78000FB27FF1120FB27FDA120FB27F12120F8B
:100B8800B27FDB120FB27F40120FB27F20120FB27A
:100B98007F02120FB27F8D120FB27F14120FB27F35
:100BA800A4120FB27FA6120FB27FAF120FB2E4FFEA
:090BB800120FDCE4FDFF020F87BF
:0A0D6E008F198D1A8B1B8A1C891D3A
:100D7800E4F51EFCF51FAB1BAA1CA91D851F827577
:100D880083001209E5605724E0F51EE519D394782D
:100D98004005E4F519051AAD1AAF19120F87E4FCDE
:100DA800E51E120ED90CBC08F7E51A04FDAF19129E
:100DB8000F87E4FC75F010E51EA42CF582E435F0ED
:100DC800F583E5822416F582E5833400120EEF0CD4
:0E0DD800BC08E174082519F519051F020D7EEF
:010DE60022EA
:060E5D00AA07A905AF037E
:100E6300E4FCEF24E0FBEAD394784003E4FA09AF0F
:100E730002AD01120F87E4FCEB120ED90CBC08F88B
:100E8300AF02E904FD120F87E4FC75F010EBA42C0C
:100E9300F582E435F0F583E5822416F582E58334A3
:080EA30000120EEF0CBC08E286
:010EAB002224
:040FF4008F10A905AC
:100FF8007F017E00AD0119ED6009AD107C00120A79
:031008001280F162
:01100B0022C2
:080BC1008F088D098A0A8B0BD5
:100BC900E4F50FC3E50A64809480500FC3E4950BE4
:100BD900F50BE4950AF50A7B2D80067B20AD09AF5C
:100BE90008120E5DE4F50DE50DC3950C505FC3E5E4
:100BF9000C950D14FD7F0A120FF4AC0AAD0BCFCD85
:100C0900CFCECCCE120A247C007D0A120A248D0E86
:100C1900E50F7020E50C14FFE50DC39F5016E50E96
:100C2900700FE50D75F008A425082408FF7B2080C6
:100C390013750F01E50D75F008A425082408FFE5D3
:0D0C49000E2430FBAD09120E5D050D809AE2
:010C5600227B
:10102200D2AF438901E4F58C758A01D2A9D28C2210
:1005FE000209D0E86480F8E933E83360110460F052
:10060E00ED33EC337009E8FCE9FDEAFEEBFF220462
:10061E0060DED3EB9FEA9EE99DE8C2E78CF0C2F75D
:10062E0095F0400CE8CCF8E9CDF9EACEFAEBCFFB29
:10063E0012099B85D0F05804700320D5B3E80470DE
:10064E00075002B2D50209DA92D5EC0460F7E4CC79
:10065E00C0E0C398F8603B94186008400DD0E0FBF2
:10066E000209B2E4FBFAC9FC8028E830E406E4C9CA
:10067E00FBE4CAFCE830E305E4C9CACBFCE8540746
:10068E006010F8C3E913F9EA13FAEB13FBEC13FC51
:10069E00D8F130F52FC3E49CFCEF9BFFEE9AFEEDF4
:1006AE0099FDD0E0FBEF4E4D4C701222DB03020998
:1006BE00D7EC2CFCEF33FFEE33FEED33FDED30E7E0
:1006CE00EB0209B2EF2BFFEE3AFEED39FDD0E0FB67
:1006DE0050130BBB00030209DAED13FDEE13FEEF10
:0806EE0013FFEC13FC0209B23A
:1006F600EC4D6011E8497017ED33EC3304600DE4FE
:10070600FCFFFEFD22E933E8330470F80209D0123B
:10071600099B58046009E4CC24815006285009023C
:1007260009DA2840030209D7C0E0EB4A7044B980D1
:1007360006D0E0FB0209C6EF4E701CBD8008EBFF39
:10074600EAFEE9FD80EBE98DF0A4FEE5F00207DFA5
:10075600E9CDF9EAFEEBFFEF89F0A4FCE5F0CE89DE
:10076600F0A42EFFE435F0CD89F0A42DFEE435F09B
:100776008067EF4E7005BD80D780C3EF8BF0A4ACC9
:10078600F0EE8BF0A42CFCE435F0F8EF8AF0A42C04
:10079600E5F038FCE433CB8DF0A42CFCE5F03BF817
:1007A600EE8AF0A42CFCE5F038F8E433CF89F0A407
:1007B6002CFCE5F038CF3400CE89F0A42FFFE5F00D
:1007C6003EFEE433C98DF0A42EFEE5F039CD8AF065
:1007D600A42FFFE5F03EFEE43DFD33D0E0FB5007DD
:1007E6000BBB000F0209DAEC2CFCEF33FFEE33FEF5
:0607F600ED33FD0209B223
:1007FC000209DAEC5D046005E8590470030209D0C3
:10080C0012099B580460F6EC4860F2EC7004FDFE93
:10081C00FF22C860DB2481C85009C39860025006CF
:10082C000209D79850CAF582E9294B4A7005AB8268
:10083C000209C675F0007C1A7880C3EF9BEE9AED26
:10084C0099400DC3EF9BFFEE9AFEED99FDE842F047
:10085C00DC23ACF0D0E0FFD0E0FED0E0FDAB82209A
:10086C00E7101BEB60BAEC2CFCEF33FFEE33FEED24
:10087C0033FD0209B2E803F830E705C0F075F0006B
:10088C00EF2FFFEE33FEED33FD40B830E7C280AA08
:10089C0074F8CC6480CCC86480C8F58204604FC303
:1008AC00EB9FF5F0EA9E42F0E99D42F0E89C45F0A2
:1008BC00603C501DE5825FFFE582D313CB5BCBF42C
:1008CC002B5582FB50280ABA002409B90020088055
:1008DC001DE5825BFBE582D313CF5FCFF4C3132FEF
:1008EC005582FF50090EBE00050DBD00010CC3EB77
:1008FC009FF5F0EA9E42F0E99D42F0E89C45F060DD
:09090C0007CC4820E701B3EC22FE
:10091500ED33EC33600A047003BD8004ECB2E7FCF0
:0109250022AF
:1009260075F020800E75F010800575F0087D007E4C
:10093600007F003392D530D503120A79EC3340108C
:10094600EF33FFEE33FEED33FDEC33FCD5F0ED2255
:0E095600E5F0247EA2D513CC92E7CDCEFF2291
:10096400EDD2E7CD33EC3392D524814006E4FFFE8B
:10097400FDFC22FCE4CFCECDCC24E0501174FF80EA
:10098400EDC3CC13CCCD13CDCE13CECF13CF047087
:07099400F030D5DE020A7904
:10099B00E9D2E7C933E833F892D5EDD2E7CD33ECA2
:0709AB0033FC5002B2D5221B
:1009B200EC30E7100FBF000C0EBE00080DBD0004A6
:1009C2000BEB6014A2D5EB13FCED92E7FD2274FF52
:1009D200FCFDFEFF22E480F8A2D574FF13FC7D80AB
:0309E200E480EFBF
:100C6300020CE3E493A3F8E493A34003F68001F2B8
:100C730008DFF48029E493A3F85407240CC8C33392
:100C8300C4540F4420C8834004F456800146F6DF61
:100C9300E4800B0102040810204080901086E47E5B
:100CA300019360BCA3FF543F30E509541FFEE49356
:100CB300A360010ECF54C025E060A840B8E493A31D
:100CC300FAE493A3F8E493A3C8C582C8CAC583CA48
:100CD300F0A3C8C582C8CAC583CADFE9DEE780BE00
:01109000005F
:1009E500BB010CE58229F582E5833AF583E02250C7
:1009F50006E92582F8E622BBFE06E92582F8E22211
:0D0A0500E58229F582E5833AF583E493222A
:100A1200EF8DF0A4A8F0CF8CF0A428CE8DF0A42EF8
:020A2200FE22B2
:100A2400BC000BBE0029EF8DF084FFADF022E4CCB6
:100A3400F875F008EF2FFFEE33FEEC33FCEE9DEC7F
:100A4400984005FCEE9DFE0FD5F0E9E4CEFD22EDC5
:100A5400F8F5F0EE8420D21CFEADF075F008EF2F0F
:100A6400FFED33FD4007985006D5F0F222C398FD00
:050A74000FD5F0EA229D
:0E0A7900C3E49FFFE49EFEE49DFDE49CFC228E
:00000001FF
